:100000000C9462000C948A000C948A000C948A0070
:100010000C948A000C948A000C948A000C948A0038
:100020000C948A000C948A000C948A000C948A0028
:100030000C948A000C948A000C948A000C948A0018
:100040000C9449070C948A000C9413050C944505F4
:100050000C948A000C948A000C948A000C948A00F8
:100060000C948A000C948A00000000080002010031
:100070000003040700000000000000000102040863
:100080001020408001020408102001020408102002
:10009000040404040404040402020202020203032E
:1000A00003030303000000002300260029000000D2
:1000B0000000250028002B0000000000240027007D
:1000C0002A00750511241FBECFEFD8E0DEBFCDBFDB
:1000D00011E0A0E0B1E0E2EAF3E102C005900D9288
:1000E000A033B107D9F721E0A0E3B1E001C01D9230
:1000F000A63EB207E1F710E0C2E6D0E004C02197C7
:10010000FE010E94C909C136D107C9F70E94A305A3
:100110000C94CF090C940000CF92DF92EF92FF92E3
:100120000F931F93E82FF92F05C0015011092109E2
:10013000310961F1908196239417B9F305C00150FC
:1001400011092109310911F1908196239413F7CFF8
:10015000C12CD12CE12CF12C0AC08FEFC81AD80A7F
:10016000E80AF80A0C151D052E053F0579F0808177
:100170008623841791F36C2D7D2D8E2D9F2D1F913D
:100180000F91FF90EF90DF90CF90089560E070E0C6
:1001900080E090E01F910F91FF90EF90DF90CF9063
:1001A000089561E080910A010E94630861E08091F6
:1001B00008010E94630861E0809106010E946308C3
:1001C00060E0809104010E94630861E08091020177
:1001D0000E94630826E040E855E260E070E080E4B9
:1001E00091E00C94AE04CF92DF92EF92FF9260E028
:1001F000809102010E949F0882E090E00E94F40733
:1002000061E0809102010E949F088AE090E00E94D4
:10021000F40760E0809102010E949F0820E432E42C
:100220004FE050E061E0809104010E94CE086093AD
:1002300030017093310180933201909333010E9419
:10024000AE0220E030E040E05FE30E94650328E278
:100250003EE74CE05DE30E9465036B017C01609327
:10026000340170933501809336019093370120E07B
:1002700030E0A9010E94A902882351F020E030E07B
:1002800048EC53E4C701B6010E946003181634F429
:10029000C12CD12C80E8E82E8FEBF82EC701B601D7
:1002A000FF90EF90DF90CF9008958F929F92AF9242
:1002B000BF92CF92DF92EF92FF920E94F300609381
:1002C0003C0170933D0180933E0190933F0160EDAE
:1002D00077E080E090E00E94B8070E94F30060930E
:1002E00038017093390180933A0190933B0140911A
:1002F0003C0150913D0160913E0170913F0122E02F
:1003000030E080E491E00E9435076CE071E080E429
:1003100091E00E94F10540913801509139016091BE
:100320003A0170913B0122E030E080E491E00E94CC
:100330003707C0903C01D0903D01E0903E01F09025
:100340003F0120E030E040E85FEBC701B6010E94CA
:10035000A902882309F44BC080903801909039019C
:10036000A0903A01B0903B0120E030E040E85FEB24
:10037000C501B4010E94A9028823C9F120E030E040
:1003800040E050E4C701B6010E943C029B01AC0171
:10039000C501B4010E9460031816BCF520E030E0EE
:1003A00040E050E4C701B6010E943D029B01AC0150
:1003B000C501B4010E94A90287FD4DC026C0A50158
:1003C0009401C701B6010E94A90287FF10C060E036
:1003D00080910A010E949F086091000180910801AC
:1003E0000E949F0861E0809106010E949F0864EFCF
:1003F00071E080E090E0FF90EF90DF90CF90BF90B1
:10040000AF909F908F900C94B807A5019401C701FD
:10041000B6010E94A90287FFD2CF61E080910A0154
:100420000E949F086091000110C020E030E040EF82
:1004300052E4C701B6010E9460031816C4F661E0D9
:1004400080910A010E949F0860E0809108010E944B
:100450009F0860E0C8CF20E030E040EF51E4C701E2
:10046000B6010E94A90287FFE0CF60E080910A01F7
:100470000E949F0860E0B2CF5058BB27AA270E9475
:1004800054020C9426030E94180338F00E941F03A4
:1004900020F039F49F3F19F426F40C9415030EF460
:1004A000E095E7FB0C940F03E92F0E94370358F304
:1004B000BA17620773078407950720F079F4A6F549
:1004C0000C9459030EF4E0950B2EBA2FA02D0B01BE
:1004D000B90190010C01CA01A0011124FF27591B89
:1004E00099F0593F50F4503E68F11A16F040A22F8F
:1004F000232F342F4427585FF3CF46953795279500
:10050000A795F0405395C9F77EF41F16BA0B620BFE
:10051000730B840BBAF09150A1F0FF0FBB1F661F45
:10052000771F881FC2F70EC0BA0F621F731F841F88
:1005300048F4879577956795B795F7959E3F08F0AE
:10054000B0CF9395880F08F09927EE0F9795879570
:1005500008950E94EB0208F481E00895E89409C030
:1005600097FB3EF490958095709561957F4F8F4FE6
:100570009F4F9923A9F0F92F96E9BB279395F695FC
:10058000879577956795B795F111F8CFFAF4BB0F7A
:1005900011F460FF1BC06F5F7F4F8F4F9F4F16C0DE
:1005A000882311F096E911C0772321F09EE8872F68
:1005B000762F05C0662371F096E8862F70E060E024
:1005C0002AF09A95660F771F881FDAF7880F96959D
:1005D000879597F90895990F0008550FAA0BE0E841
:1005E000FEEF16161706E807F907C0F012161306F5
:1005F000E407F50798F0621B730B840B950B39F435
:100600000A2661F0232B242B252B21F408950A269A
:1006100009F4A140A6958FEF811D811D089597F9DA
:100620009F6780E870E060E008959FEF80EC089598
:1006300000240A94161617061806090608950024C1
:100640000A9412161306140605060895092E03943B
:10065000000C11F4882352F0BB0F40F4BF2B11F4AF
:1006600060FF04C06F5F7F4F8F4F9F4F089557FD0E
:100670009058440F551F59F05F3F71F04795880F10
:1006800097FB991F61F09F3F79F0879508951216A7
:1006900013061406551FF2CF4695F1DF08C0161653
:1006A00017061806991FF1CF869571056105089404
:1006B0000895E894BB2766277727CB0197F908951B
:1006C0000E94EB0208F48FEF08950E9478030C94C7
:1006D00026030E94180338F00E941F0320F0952380
:1006E00011F00C940F030C94150311240C945A036D
:1006F0000E94370370F3959FC1F3950F50E0551F8B
:10070000629FF001729FBB27F00DB11D639FAA2766
:10071000F00DB11DAA1F649F6627B00DA11D661FB5
:10072000829F2227B00DA11D621F739FB00DA11DD6
:10073000621F839FA00D611D221F749F3327A00D90
:10074000611D231F849F600D211D822F762F6A2F2C
:1007500011249F5750409AF0F1F088234AF0EE0F91
:10076000FF1FBB1F661F771F881F91505040A9F7BE
:100770009E3F510580F00C940F030C945A035F3F89
:10078000E4F3983ED4F3869577956795B795F795FA
:10079000E7959F5FC1F7FE2B880F911D9695879572
:1007A00097F90895FC01918D228D892F90E0805C4E
:1007B0009F4F821B91098F7399270895FC01918D9A
:1007C000828D981731F0828DE80FF11D858D90E0B4
:1007D00008958FEF9FEF0895FC01918D828D9817FA
:1007E00061F0828DDF01A80FB11D5D968C91928D15
:1007F0009F5F9F73928F90E008958FEF9FEF089512
:10080000FC01538D448D252F30E0842F90E0821B16
:10081000930B541710F0CF960895019708958BE627
:1008200095E0892B49F080E090E0892B29F00E9427
:100830006B0581110C9400000895FC01848DDF018B
:10084000A80FB11DA35ABF4F2C91848D90E0019643
:100850008F739927848FA689B7892C93A089B18932
:100860008C91837080648C93938D848D981306C0D3
:100870000288F389E02D80818F7D80830895EF9237
:10088000FF920F931F93CF93DF93EC0181E0888F4A
:100890009B8D8C8D981305C0E889F989808185FD31
:1008A00026C0F62E0B8D10E00F5F1F4F0F73112720
:1008B000E02E8C8DE8120CC00FB607FCFACFE88949
:1008C000F989808185FFF5CFCE010E941D04F1CF0B
:1008D0008B8DFE01E80FF11DE35AFF4FF0829FB7A9
:1008E000F8940B8FEA89FB89808180620AC09FB7E8
:1008F000F894EE89FF896083E889F98980818370A3
:10090000806480839FBF81E090E0DF91CF911F9151
:100910000F91FF90EF900895CF93DF93EC01888DB6
:100920008823C9F0EA89FB89808185FD05C0A889F3
:10093000B9898C9186FD0FC00FB607FCF5CF808179
:1009400085FFF2CFA889B9898C9185FFEDCFCE01C3
:100950000E941D04E7CFDF91CF910895CF92DF92DF
:10096000EF92FF921F93CF93DF93EC016A017B011B
:10097000122FE889F98982E080834115514E610583
:100980007105B1F060E079E08DE390E0A701960198
:100990000E94A709DA01C9010197A109B109B69519
:1009A000A795979587959C01211580E13807A8F0B8
:1009B000E889F989108260E874E88EE190E0A70187
:1009C00096010E94A709DA01C9010197A109B1099D
:1009D000B695A795979587959C01EC85FD85308305
:1009E000EE85FF852083188EEC89FD891083EA89C6
:1009F000FB89808180618083EA89FB8980818860AE
:100A00008083EA89FB89808180688083EA89FB8909
:100A100080818F7D8083DF91CF911F91FF90EF9038
:100A2000DF90CF9008951F920F920FB60F9211246E
:100A30002F938F939F93EF93FF93E0915001F09149
:100A400051018081E0915601F091570182FD12C061
:100A50009081809159018F5F8F7320915A01821785
:100A600051F0E0915901F0E0E05CFE4F958F8093EA
:100A7000590101C08081FF91EF919F918F912F913A
:100A80000F900FBE0F901F9018951F920F920FB6E8
:100A90000F9211242F933F934F935F936F937F9304
:100AA0008F939F93AF93BF93EF93FF9380E491E075
:100AB0000E941D04FF91EF91BF91AF919F918F9183
:100AC0007F916F915F914F913F912F910F900FBE4A
:100AD0000F901F90189580E491E00E94D20321E0CE
:100AE000892B09F420E0822F0895E0E4F1E01382DD
:100AF000128288EE93E0A0E0B0E084839583A68321
:100B0000B78383E191E09183808385EC90E09587C2
:100B1000848784EC90E09787868780EC90E0918BC7
:100B2000808B81EC90E0938B828B82EC90E0958BB4
:100B3000848B86EC90E0978B868B118E128E138EB1
:100B4000148E089508950E94FF070E94A2050E9436
:100B5000D100CFE0D4E00E9455012097E1F30E943C
:100B60000F04F9CFCF92DF92EF92FF920F931F9372
:100B7000CF93DF936C017A018B01C0E0D0E0CE15FA
:100B8000DF0581F0D8016D918D01D601ED91FC91C9
:100B90000190F081E02DC6010995892B11F0219675
:100BA000EECF7E01C701DF91CF911F910F91FF9092
:100BB000EF90DF90CF9008956115710579F0FB01FA
:100BC00001900020E9F73197AF01461B570BDC017C
:100BD000ED91FC910280F381E02D099480E090E09A
:100BE00008950C94DC05DC01ED91FC910190F081FD
:100BF000E02D099461E271E00C94DC058F929F92E4
:100C0000AF92BF92EF92FF920F931F93CF93DF9318
:100C1000CDB7DEB7A1970FB6F894DEBF0FBECDBF3C
:100C20007C01FA01CB0119A2223008F42AE08E01DE
:100C30000F5D1F4F822E912CA12CB12CBF01A5015D
:100C400094010E94A709F901CA01015011096A30F3
:100C500010F4605D01C0695CD8016C93232B242BD8
:100C6000252B61F7B801C7010E94DC05A1960FB6DC
:100C7000F894DEBF0FBECDBFDF91CF911F910F91D2
:100C8000FF90EF90BF90AF909F908F9008952115A7
:100C9000310541F4DC01ED91FC910190F081E02DF2
:100CA000642F09940C94FE059A01AB0160E070E09A
:100CB0000C9447067F928F929F92AF92BF92CF92F1
:100CC000DF92EF92FF920F931F93CF93DF938C01EC
:100CD0006A017B01722E9A01AB01C701B6010E9425
:100CE000A209882319F064E271E027C04601570188
:100CF000E894B7F82FEF3FEF4FE75FE7C501B40186
:100D00000E94A20981110DC02FEF3FEF4FE75FE76F
:100D1000C501B4010E94A90218161CF468E271E032
:100D20000CC02FEF3FEF4FE75FE4C701B6010E9411
:100D30006003181694F46CE271E0C801DF91CF9162
:100D40001F910F91FF90EF90DF90CF90BF90AF90E9
:100D50009F908F907F900C94DC052FEF3FEF4FE733
:100D60005FECC701B6010E94A90287FDE4CF20E035
:100D700030E0A901C701B6010E94A90287FF0AC09D
:100D80006DE2C8010E94F305EC01F7FAF094F7F860
:100D9000F09402C0C0E0D0E0B12C60E070E080E0F0
:100DA0009FE37B1441F020E030E040E251E40E94F8
:100DB0000109B394F6CFA70196010E943D026B0191
:100DC0007C010E9473094B015C012AE0AB01BC016C
:100DD000C8010E94FE05C80FD91F7720B9F1C501CF
:100DE000B4010E94AE029B01AC01C701B6010E9492
:100DF0003C026B017C016EE2C8010E94F305C80F42
:100E0000D91F20E030E040E251E4C701B6010E9462
:100E100065034B015C010E9473096B017C014AE090
:100E200050E0C8010E945406C80FD91FB60180E0E7
:100E300090E00E94AE029B01AC01C501B4010E948A
:100E40003C026B017C017A947110DBCFCE01DF9103
:100E5000CF911F910F91FF90EF90DF90CF90BF90B7
:100E6000AF909F908F907F9008950C945A060F93A7
:100E70001F93CF93DF93EC010E945A068C01CE01A1
:100E80000E94FA05800F911FDF91CF911F910F9162
:100E900008951F920F920FB60F9211242F933F9334
:100EA0008F939F93AF93BF938091DE019091DF0169
:100EB000A091E001B091E1013091DD0123E0230F29
:100EC0002D3720F40196A11DB11D05C026E8230F82
:100ED0000296A11DB11D2093DD018093DE01909348
:100EE000DF01A093E001B093E1018091E2019091D4
:100EF000E301A091E401B091E5010196A11DB11DAE
:100F00008093E2019093E301A093E401B093E501A3
:100F1000BF91AF919F918F913F912F910F900FBEF5
:100F20000F901F9018953FB7F8948091E20190912F
:100F3000E301A091E401B091E50126B5A89B05C0AD
:100F40002F3F19F00196A11DB11D3FBFBA2FA92F48
:100F5000982F8827820F911DA11DB11DBC01CD01C5
:100F600042E0660F771F881F991F4A95D1F70895B1
:100F70008F929F92AF92BF92CF92DF92EF92FF92A9
:100F80006B017C010E9493074B015C01C114D104E9
:100F9000E104F10401F10E9400090E949307DC01C1
:100FA000CB0188199909AA09BB09883E9340A1057C
:100FB000B10560F321E0C21AD108E108F10888EE1A
:100FC000880E83E0981EA11CB11CC114D104E10459
:100FD000F10419F7DBCFFF90EF90DF90CF90BF9037
:100FE000AF909F908F9008958230910538F0880FD0
:100FF000991F880F991F05970197F1F70895789425
:1010000084B5826084BD84B5816084BD85B582600D
:1010100085BD85B5816085BDEEE6F0E080818160AB
:101020008083E1E8F0E010828081826080838081AB
:1010300081608083E0E8F0E0808181608083E1EB83
:10104000F0E0808184608083E0EBF0E0808181606B
:101050008083EAE7F0E08081846080838081826021
:10106000808380818160808380818068808310920A
:10107000C1000895833081F028F4813099F08230E6
:10108000A1F008958730A9F08830B9F08430D1F408
:10109000809180008F7D03C0809180008F77809346
:1010A0008000089584B58F7702C084B58F7D84BD9C
:1010B00008958091B0008F7703C08091B0008F7D3C
:1010C0008093B0000895CF93DF9390E0FC01E45843
:1010D000FF4F2491FC01E057FF4F8491882361F179
:1010E00090E0880F991FFC01E854FF4FC591D491FF
:1010F000FC01E255FF4FA591B491611109C09FB762
:10110000F8948881209582238883EC912E230BC04C
:10111000623061F49FB7F8948881322F3095832331
:101120008883EC912E2B2C939FBF06C08FB7F89429
:10113000E8812E2B28838FBFDF91CF9108951F93D5
:10114000CF93DF93282F30E0F901E859FF4F8491C6
:10115000F901E458FF4FD491F901E057FF4FC491D2
:10116000CC23C1F0162F81110E943A08EC2FF0E039
:10117000EE0FFF1FE255FF4FA591B4919FB7F89472
:10118000111104C08C91D095D82302C0EC91DE2BB4
:10119000DC939FBFDF91CF911F9108950F931F9311
:1011A00090E0FC01E458FF4F7491FC01E057FF4FC1
:1011B000E491662311F0672F01C060E0F0E0EE0FCC
:1011C000FF1FEC55FF4F8591949189019A013F7063
:1011D000462F672F0E948C006115710581059105CE
:1011E00049F0DC01CB010196A11DB11DBC01CD016F
:1011F0009F7003C060E070E0CB011F910F910895D4
:1012000008950E9415090C9426030E941F0358F0AC
:101210000E94180340F029F45F3F29F00C940F035B
:1012200051110C945A030C9415030E94370368F370
:101230009923B1F3552391F3951B550BBB27AA278F
:1012400062177307840738F09F5F5F4F220F331FC9
:10125000441FAA1FA9F335D00E2E3AF0E0E832D091
:1012600091505040E695001CCAF72BD0FE2F29D094
:10127000660F771F881FBB1F261737074807AB0766
:10128000B0E809F0BB0B802DBF01FF2793585F4FDB
:101290003AF09E3F510578F00C940F030C945A03DA
:1012A0005F3FE4F3983ED4F3869577956795B795BD
:1012B000F7959F5FC9F7880F911D9695879597F9C8
:1012C0000895E1E0660F771F881FBB1F6217730741
:1012D0008407BA0720F0621B730B840BBA0BEE1F56
:1012E00088F7E09508950E943F0388F09F5798F093
:1012F000B92F9927B751B0F0E1F0660F771F881F1B
:10130000991F1AF0BA95C9F714C0B13091F00E9434
:101310005903B1E008950C945903672F782F88275B
:10132000B85F39F0B93FCCF3869577956795B3955B
:10133000D9F73EF490958095709561957F4F8F4FCA
:101340009F4F08950E94EB02880B990B0895A1E22C
:101350001A2EAA1BBB1BFD010DC0AA1FBB1FEE1F2F
:10136000FF1FA217B307E407F50720F0A21BB30B7A
:10137000E40BF50B661F771F881F991F1A9469F7F6
:1013800060957095809590959B01AC01BD01CF0152
:101390000895EE0FFF1F0590F491E02D0994F89445
:0213A000FFCF7D
:1013A20001000D000C0005000400030020200000D5
:1013B2000000003F04B20500048C04D203EC03DEFB
:1013C200030D0A006E616E00696E66006F7666003C
:00000001FF
