S01700004763634170706C69636174696F6E342E7372656358
S11300000C9434000C9446000C9446000C94460066
S11300100C9446000C9446000C9446000C94460044
S11300200C9446000C9446000C9446000C94460034
S11300300C9446000C9446000C9446000C94460024
S11300400C9446000C9446000C9446000C94460014
S11300500C9446000C9446000C9446000C94460004
S11300600C9446000C94460011241FBECFEFD8E038
S1130070DEBFCDBF21E0A0E0B1E001C01D92A03100
S1130080B207E1F70E946D000C9409020C94000081
S113009015B883EF91E00197F1F700C0000080E10B
S11300A085B983EC99E00197F1F700C0000015B819
S11300B010920001109201011092020110920301AA
S11300C0109204011092050110920601109207018A
S11300D060E070E080E89FEB08958F929F92AF926A
S11300E0BF92CF92DF92EF92FF9288E38AB980E2C7
S11300F084B90E94480060930C0170930D018093B1
S11301000E0190930F012FE78AE196E02150804081
S11301109040E1F700C000000E9448006B017C01A0
S1130120609308017093090180930A0190930B0175
S113013080900C0190900D01A0900E01B0900F01E1
S113014020E030E040E85FEBC501B4010E948A0181
S1130150882309F45EC020E030E040E85FEBC7018B
S1130160B6010E948A01882309F453C020E030E0DC
S113017040E050E4C501B4010E941D019B01AC01A3
S1130180C701B6010E94040218167CF520E030E095
S113019040E050E4C501B4010E941E019B01AC0182
S11301A0C701B6010E948A018823FCF427C080E3BA
S11301B08BB92FC0A5019401C701B6010E940402A6
S11301C018163CF588E18BB924C080E28BB921C0B4
S11301D020E030E040EF52E4C501B4010E94040283
S11301E01816BCF488E08BB914C0A5019401C701AA
S11301F0B6010E9404021816ECF6D9CF20E030E0D4
S113020040EF51E4C501B4010E948A01882304F738
S1130210DCCF2FE986E891E0215080409040E1F75F
S113022000C0000080E090E0FF90EF90DF90CF905E
S1130230BF90AF909F908F9008955058BB27AA27E6
S11302400E9435010C94CA010E94BC0138F00E943E
S1130250C30120F039F49F3F19F426F40C94B9013A
S11302600EF4E095E7FB0C94B301E92F0E94DB0147
S113027058F3BA17620773078407950720F079F4D7
S1130280A6F50C94FD010EF4E0950B2EBA2FA02DCB
S11302900B01B90190010C01CA01A0011124FF272F
S11302A0591B99F0593F50F4503E68F11A16F0402A
S11302B0A22F232F342F4427585FF3CF4695379529
S11302C02795A795F0405395C9F77EF41F16BA0BEE
S11302D0620B730B840BBAF09150A1F0FF0FBB1F9C
S11302E0661F771F881FC2F70EC0BA0F621F731FE5
S11302F0841F48F4879577956795B795F7959E3F42
S113030008F0B0CF9395880F08F09927EE0F9795D2
S1130310879508950E948F0108F481E00895990F4C
S11303200008550FAA0BE0E8FEEF16161706E807BB
S1130330F907C0F012161306E407F50798F0621BDC
S1130340730B840B950B39F40A2661F0232B242BB1
S1130350252B21F408950A2609F4A140A6958FEFD0
S1130360811D811D089597F99F6780E870E060E022
S113037008959FEF80EC089500240A94161617063A
S113038018060906089500240A9412161306140682
S113039005060895092E0394000C11F4882352F0E5
S11303A0BB0F40F4BF2B11F460FF04C06F5F7F4F9D
S11303B08F4F9F4F089557FD9058440F551F59F084
S11303C05F3F71F04795880F97FB991F61F09F3F3E
S11303D079F087950895121613061406551FF2CF67
S11303E04695F1DF08C0161617061806991FF1CFB7
S11303F086957105610508940895E894BB276627DE
S11304007727CB0197F908950E948F0108F48FEFA5
S10904100895F894FFCFEB
S9030000FC
